:03000000020744B0
:0C074400787FE4F6D8FD75814C02078B2D
:100A370008390D0D0D0D0D0D0D0D082500000000D9
:100A47000000000008310000000000000000044220
:040A5700404000001B
:100A62007F05E546B5070205220FBF11F5E546B43D
:100A72000103E4F522E5227002F533E522C3940373
:050A8200400375330183
:010A8700224C
:10059B00AE4BAF4C7C007D0A12041FED4C60030286
:1005AB0006A31208598F49E54965475549F5468514
:1005BB00494724FE604A14700302066014605324FA
:1005CB000360030206A00548E548B40303E4F548BD
:1005DB00E548640260030206A0FFFE7D207C41AB70
:1005EB0045AA44A943A8421201161203738F417BFB
:1005FB00007A007941750C01E4FD1208D30206A0C4
:10060B00E548B40208E4F522F5210206A005220212
:10061B0006A0E548B4013AE4F522AF45AE44AD433C
:10062B00AC42FBFAF9783F1200218F458E448D4383
:10063B008C42E4FFFEFD7CBFAB45AA44A943A84214
:10064B001202BC7050F545F5447543A075424080CD
:10065B004405228040E548B40139E4F522AF45AEAC
:10066B0044AD43AC42FBFAF9783F1200258F458E1F
:10067B00448D438C42E4FFFE7DB07C40AB45AA44E5
:10068B00A943A8421202BC700CF545F544F543F59D
:09069B004280020522120A6222CB
:10048200AE4BAF4C7C007D3212041FED4C60030278
:10049200059AE54814605E1470030205592402604F
:1004A2000302059A75390AE4FFFE7DC87C42AB302F
:1004B200AA2FA92EA82D120116120373AB07AA06A2
:1004C2007C007D6412041F7C007D0A12041F8D3E95
:1004D2007C007D0AAF03AE0212041F7C007D0A126B
:1004E200041F8D3FE4FFFE7DC87C42AB30AA2FA9DA
:1004F2002EA82D804F75390BE4FFFE7DC87C42ABE0
:1005020045AA44A943A842120116120373AB07AAD3
:10051200067C007D6412041F7C007D0A12041F8D7C
:100522003E7C007D0AAF03AE0212041F7C007D0AEE
:1005320012041F8D3FE4FFFE7DC87C42AB45AA44F6
:10054200A943A8421201161203737C007D0A120409
:100552001F8D40752A012275390CE4F52AE521D355
:100562009463400EE52175F0648475F00A84AFF05F
:1005720080027F0D8F3EE521D39409400EE521755F
:10058200F00A8475F00A84AFF080027F0D8F3FE598
:090592002175F00A8485F0402275
:1007D000AE4BAF4C7C007D3212041FED4C701D7F80
:1007E00043120A88AC07E412033FE4FBFA794C7821
:1007F0004212021F8F308E2F8D2E8C2DAF45AE44AE
:10080000AD43AC42AB30AA2FA92EA82D1202BC607A
:10081000044002D201300119AF45AE44AD43AC42B1
:10082000AB30AA2FA92EA82D1202BC50040521C25C
:1008300001AF45AE44AD43AC42AB30AA2FA92EA8C0
:100840002D1202BC50028001C39202E52120E00477
:090850007F0080027F018F32223B
:100B4200538EBF53890F758B18758DFCC28FD28E51
:050B5200D2AFD2AB227E
:03001B000206A436
:1006A400C0E0C0F0C083C082C0D075D000C000C01C
:1006B40001C002C003C004C005C006C007054CE564
:1006C4004C7002054BFFAE4BBE0309BFE806754BE9
:1006D40000754C00054AE54AB40803754A007439AC
:1006E400254AF8E6FD7425254AF8E6FBAF4A1209C7
:1006F4005B7431254AF8E6FDAF4A12099A30021CB0
:100704000524E52470020523FFAE23BE1317BF881A
:100714001475230075240075310180097523007553
:100724002400753100D007D006D005D004D003D002
:1007340002D001D000D0D0D082D083D0F0D0E0322B
:100AD1007580FFE5A0541F4480F5A053A01FE4F5E5
:0D0AE10080E5A0541F44A0F5A053A01F22E3
:1009D400120AD1120B427B007A007941750C01E4B2
:1009E400FD120919AC41E412033FE4FBFA792078C3
:1009F4004112021F8F458E448D438C4212059B1277
:070A040004821207D080F507
:10085900E4FFC2ABC2C4D2C2D2B5D2B420B0027FC7
:100869000520B1027F0620B2027F0720B3027F086C
:10087900D2C4C2C2D2B5D2B420B0027F0920B1021B
:100889007F0A20B2027F0B20B3027F0CD2C4D2C2EE
:10089900C2B5D2B420B0027F0D20B1027F0E20B2C2
:1008A900027F0220B3027F01D2C4D2C2D2B5C2B440
:1008B90020B0027F0F20B1027F1020B2027F0420F6
:0908C900B3027F0375B0FFD2AB4E
:0108D2002203
:060A5B00010D00010EFF79
:10099A00ED600F7401A807088002C333D8FC420D2A
:1009AA00800E7401A807088002C333D8FCF4520DE4
:1009BA00E50D650E6013E50DF4F580E5A0541F44BE
:0909CA0080F5A053A01F850D0E5D
:0109D3002201
:0E0B6600C0F9A4B0999282F88090C18CC8FFAB
:10095B007580FFE5A0541F44E0F5A053A01F740160
:10096B00A807088002C333D8FCF580E5A0541F44C8
:10097B00C0F5A053A01FED900B6693F580EB6003C1
:0F098B0053807FE5A0541F44E0F5A053A01F2226
:040B2800D2A07F05D3
:100B2C00000000000000000000000000000000AE0B
:060B3C00071FEE70EB2222
:0F0B5700D2A1120B28C2A17F05120B2CC2A02223
:0C0B7400C2A1120B28D2A17F05020B2C9D
:020A0B00AD0735
:100A0D00E4FCC2A07F05120B2CED30E704D2A180CF
:100A1D0002C2A17F05120B2CD2A0ED25E0FD7F05B2
:090A2D00120B2C0CBC08DBC2A06A
:010A3600229D
:100AEE00E4FC120B28ED25E0FD30A103430501C205
:0C0AFE00A07F05120B2C0CBC08E8AF0513
:010B0A0022C8
:100AAD00AB05120B577FA0120A0B120ABFAF031230
:020ABD000A0B22
:100ABF00120B28A2A1E433FDC2A07F05120B2CAFAD
:010ACF000521
:010AD0002203
:10000300C2A0EF24FF92A17F05120B2C120B28C272
:08001300A0D2A17F05020B2C15
:020A8800AB07BA
:100A8A00120B577F90120AB4120B577F91120A0B5E
:100A9A00120ABF120AEEAD077F01120003120B748D
:020AAA00AF0596
:010AAC002227
:100B0B00AB07120B577F90120A0B120ABF7F4112D1
:0D0B1B000A0B120ABFAF03120A0B020ABF39
:100919008B088A09890A120AAD120B577FA1120A9C
:100929000B120ABFAF0C150CEF6024120AEEAB08CC
:10093900050AE50AAA097002050914F9EF12040D5E
:10094900E50C6004E4FF80027F0112000380D502F8
:020959000B741D
:1008D3008B088A09890A120AADAF0C150CEF601F49
:1008E300AB08050AE50AAA097002050914F91203FF
:1008F300F4FF120A0B120ABF7FC8120B2C80DA1204
:100903000B747FFF120B2C7FFF120B2C7FFF120B3C
:060913002C7FFF020B2CFB
:10001E000203DFE86480F8E933E83360110460F02E
:10002E00ED33EC337009E8FCE9FDEAFEEBFF220448
:10003E0060DED3EB9FEA9EE99DE8C2E78CF0C2F743
:10004E0095F0400CE8CCF8E9CDF9EACEFAEBCFFB0F
:10005E001203AA85D0F05804700320D5B3E80470BB
:10006E00075002B2D50203E992D5EC0460F7E4CC56
:10007E00C0E0C398F8603B94186008400DD0E0FBD8
:10008E000203C1E4FBFAC9FC8028E830E406E4C9A7
:10009E00FBE4CAFCE830E305E4C9CACBFCE854072C
:1000AE006010F8C3E913F9EA13FAEB13FBEC13FC37
:1000BE00D8F130F52FC3E49CFCEF9BFFEE9AFEEDDA
:1000CE0099FDD0E0FBEF4E4D4C701222DB03020384
:1000DE00E6EC2CFCEF33FFEE33FEED33FDED30E7B7
:1000EE00EB0203C1EF2BFFEE3AFEED39FDD0E0FB44
:1000FE0050130BBB00030203E9ED13FDEE13FEEFED
:08010E0013FFEC13FC0203C116
:10011600EC4D6011E8497017ED33EC3304600DE4E3
:10012600FCFFFEFD22E933E8330470F80203DF1218
:1001360003AA58046009E4CC248150062850090219
:1001460003E92840030203E6C0E0EB4A7044B980A5
:1001560006D0E0FB0203D5EF4E701CBD8008EBFF16
:10016600EAFEE9FD80EBE98DF0A4FEE5F00201FF71
:10017600E9CDF9EAFEEBFFEF89F0A4FCE5F0CE89C4
:10018600F0A42EFFE435F0CD89F0A42DFEE435F081
:100196008067EF4E7005BD80D780C3EF8BF0A4ACAF
:1001A600F0EE8BF0A42CFCE435F0F8EF8AF0A42CEA
:1001B600E5F038FCE433CB8DF0A42CFCE5F03BF8FD
:1001C600EE8AF0A42CFCE5F038F8E433CF89F0A4ED
:1001D6002CFCE5F038CF3400CE89F0A42FFFE5F0F3
:1001E6003EFEE433C98DF0A42EFEE5F039CD8AF04B
:1001F600A42FFFE5F03EFEE43DFD33D0E0FB5007C3
:100206000BBB000F0203E9EC2CFCEF33FFEE33FED1
:06021600ED33FD0203C1FF
:10021C000203E9EC5D046005E8590470030203DF96
:10022C001203AA580460F6EC4860F2EC7004FDFE70
:10023C00FF22C860DB2481C85009C39860025006B5
:10024C000203E69850CAF582E9294B4A7005AB8245
:10025C000203D575F0007C1A7880C3EF9BEE9AED03
:10026C0099400DC3EF9BFFEE9AFEED99FDE842F02D
:10027C00DC23ACF0D0E0FFD0E0FED0E0FDAB822080
:10028C00E7101BEB60BAEC2CFCEF33FFEE33FEED0A
:10029C0033FD0203C1E803F830E705C0F075F00048
:1002AC00EF2FFFEE33FEED33FD40B830E7C280AAEE
:1002BC0074F8CC6480CCC86480C8F58204604FC3E9
:1002CC00EB9FF5F0EA9E42F0E99D42F0E89C45F088
:1002DC00603C501DE5825FFFE582D313CB5BCBF412
:1002EC002B5582FB50280ABA002409B9002008803B
:1002FC001DE5825BFBE582D313CF5FCFF4C3132FD5
:10030C005582FF50090EBE00050DBD00010CC3EB5C
:10031C009FF5F0EA9E42F0E99D42F0E89C45F060C2
:09032C0007CC4820E701B3EC22E4
:1003350075F020800E75F010800575F0087D007E43
:10034500007F003392D530D503120474EC3340108E
:10035500EF33FFEE33FEED33FDEC33FCD5F0ED224C
:0E036500E5F0247EA2D513CC92E7CDCEFF2288
:10037300EDD2E7CD33EC3392D524814006E4FFFE82
:10038300FDFC22FCE4CFCECDCC24E0501174FF80E1
:10039300EDC3CC13CCCD13CDCE13CECF13CF04707E
:0703A300F030D5DE02047406
:1003AA00E9D2E7C933E833F892D5EDD2E7CD33EC99
:0703BA0033FC5002B2D52212
:1003C100EC30E7100FBF000C0EBE00080DBD00049D
:1003D1000BEB6014A2D5EB13FCED92E7FD2274FF49
:1003E100FCFDFEFF22E480F8A2D574FF13FC7D80A2
:0303F100E480EFB6
:100750000209D4E493A3F8E493A34003F68001F2E2
:1007600008DFF48029E493A3F85407240CC8C333AA
:10077000C4540F4420C8834004F456800146F6DF79
:10078000E4800B0102040810204080900A37E47EC8
:10079000019360BCA3FF543F30E509541FFEE4936E
:1007A000A360010ECF54C025E060A840B8E493A335
:1007B000FAE493A3F8E493A3C8C582C8CAC583CA60
:1007C000F0A3C8C582C8CAC583CADFE9DEE780BE18
:010A61000094
:1003F400BB010689828A83E0225002E722BBFE0207
:09040400E32289828A83E4932239
:10040D00BB010689828A83F0225002F722BBFE01CE
:02041D00F322C8
:10041F00BC000BBE0029EF8DF084FFADF022E4CCC1
:10042F00F875F008EF2FFFEE33FEEC33FCEE9DEC8A
:10043F00984005FCEE9DFE0FD5F0E9E4CEFD22EDD0
:10044F00F8F5F0EE8420D21CFEADF075F008EF2F1A
:10045F00FFED33FD4007985006D5F0F222C398FD0B
:05046F000FD5F0EA22A8
:0E047400C3E49FFFE49EFEE49DFDE49CFC2299
:00000001FF
