:03000000020B3AB6
:0C0B3A00787FE4F6D8FD75816D020B8118
:100CAD001056000A000A000A000A000A000A000A8B
:100CBD00000A102E000000000000000000000000DF
:100CCD0000000000103E00000000000000000000C9
:0F0CDD000000000000000321173B38022607D05B
:1008D700AE6CAF6D7C007D0A12083EED4C600302E2
:1008E70009DE120BC68F6AE56A6567556AF5668584
:1008F7006A6724FB602B24FD604514700302099688
:10090700240560030209DE0569E56970020568646C
:1009170004456860030209DEF568F569C200C20391
:1009270022E569640145687005A200B39200E56994
:100937006403456860030209DEA203B3920322E55C
:100947006964014568701F20001C74E82527F52796
:1009570074033526F526E527B4100BE526B42706DC
:100967007526037527E8E5696401456870693000F5
:100977006674642525F525E43524F524E52564E822
:100987007004E5246403704F75240375258422E5FC
:100997006964014568701920001674182527F52722
:1009A70074FC3526F52645277006752623752728F6
:1009B700E56964014568701F30001C749C2525F5A6
:1009C7002574FF3524F524E525B4180BE524B4FC7C
:0809D700067524FC75257C2245
:10001E007B007A007921120DA0AE6CAF6D7C007D55
:10002E003212083EED4C600302047FE56860030265
:10003E00047FE5691470030201931470030202D366
:10004E0014700302033A2403600302047F75560002
:10005E0075570E75580075590A755A00755B0AD397
:10006E00E5299400E52864809480402BD3E52994FB
:10007E000FE528648094A74018AE28AF297C277D11
:10008E00101208937C007D0A120893AE04AF05800F
:10009E000A7E007F0A80047E007F0A8E5C8F5DD30D
:1000AE00E5299400E52864809480402BD3E52994BB
:1000BE00E7E528648094834018AE28AF297C037D41
:1000CE00E81208937C007D0A120893AE04AF0580F7
:1000DE000A7E007F0A80047E007F0A8E5E8F5FD3C9
:1000EE00E5299400E52864809480402BD3E529947B
:1000FE0063E528648094804018AE28AF297C007D8B
:10010E00641208937C007D0A120893AE04AF05803A
:10011E000A7E007F0A80047E007F0A8E608F61D384
:10012E00E5299400E52864809480402BD3E529943A
:10013E0009E528648094804018AE28AF297C007DA4
:10014E000A1208937C007D0A120893AE04AF058054
:10015E000A7E007F0A80047E007F0D8E628F63D33D
:10016E00E5299400E528648094804012AE28AF29DA
:10017E007C007D0A120893AE04AF050202B27E0027
:10018E007F0D0202B220006175560075570B75582F
:10019E0000755901755A00755B0A755C00755D0A2C
:1001AE00AE26AF277C037DE812083E7C007D0A1246
:1001BE00083E8C5E8D5FAE26AF277C007D641208F4
:1001CE003E7C007D0A12083E8C608D61AE26AF2704
:1001DE007C007D0A12083E7C007D0A12083E8C626D
:1001EE008D63AE26AF2702047475560075570B75D6
:1001FE005800755902755A00755B0A755C00755D7D
:10020E000AC3E524648094807E0040047F0A800245
:10021E007F0F8E5E8F5FE525452470030202B7D3F4
:10022E00E5259400E52464809480AE24AF25400239
:10023E0080077CFF7DFF12082C7C007D64120893E2
:10024E007C007D0A120893AE04AF058E608F61D3D9
:10025E00E5259400E52464809480AE24AF25400209
:10026E0080077CFF7DFF12082C7C007D0A1208930C
:10027E007C007D0A120893AE04AF058E628F63D3A5
:10028E00E5259400E52464809480AE24AF254002D9
:10029E0080077CFF7DFF12082C7C007D0A120893DC
:0902AE00AE04AF058E648F6522D9
:1002B700750805E50825E02456F8760008760A054E
:0B02C70008E508B407EDE4F564F565F8
:1002D20022E52175F00A8475F00A84AFF0755600A4
:1002E2008F57E52175F00A84AFF07558008F597564
:1002F2005A00755B0FE52275F00A8475F00A84AF27
:10030200F0755C008F5DE52275F00A84AFF0755ED2
:10031200008F5F75600075610FE52375F00A8475C3
:10032200F00A84AFF07562008F63E52375F00A84EA
:10033200AFF07564008F6522300303020404755622
:100342000075570C75580075590E755A00755B0A81
:10035200D3E54F940FE54E94274018AE4EAF4F7C35
:10036200277D1012083E7C007D0A12083EAE04AFC3
:100372000580047E007F0A8E5C8F5DD3E54F94E793
:10038200E54E94034018AE4EAF4F7C037DE8120851
:100392003E7C007D0A12083EAE04AF0580047E005A
:1003A2007F0A8E5E8F5FD3E54F9463E54E940040E3
:1003B20018AE4EAF4F7C007D6412083E7C007D0A71
:1003C20012083EAE04AF0580047E007F0A8E608F65
:1003D20061D3E54F9409E54E94004018AE4EAF4FFD
:1003E2007C007D0A12083E7C007D0A12083EAE04A3
:1003F200AF0580047E007F0A8E628F63AE4EAF4FE0
:10040200807075560075570C755800755910AE50AE
:10041200AF517C007D0A12083E7C007D0A12083E24
:100422008C5A8D5BAE50AF517C007D0A12083E8C17
:100432005C8D5DAE52AF537C007D0A12083E7C009B
:100442007D0A12083E8C5E8D5FAE52AF537C007DFA
:100452000A12083E8C608D61AE54AF557C007D0A55
:1004620012083E7C007D0A12083E8C628D63AE54F7
:0E047200AF557C007D0A12083E8C648D652219
:100E0000C3E54F9529E54E9528501DE4FF74212F29
:100E1000F8E6FDEF25E02450F8760008A6050FBFA0
:080E200003EB85284E85294FE4
:010E280022A7
:100AAD00C3E528648094805004E4FF807CC3E5296D
:100ABD0094F4E5286480948150047F33806BD3E5F2
:100ACD00299527E528952640047FFF805CE527249E
:100ADD000CFDE52634FEFCE4120723A804A905AAA3
:100AED0006AB07E4FFFE7D807C40120681C004C08A
:100AFD0005C006C007AC28AD29EC120723E4FBFAAC
:100B0D0079FA78C3120487D003D002D001D0001235
:100B1D000578E4FBFA7980783F120487E4FBFA79D3
:0D0B2D004C784212057812075C120F2F223F
:100C6600120E00E5694568700AA20133753E00F56B
:100C76003F8005E4F53EF53FC3E528648094805047
:100C860008754000754101801BD3E5299527E528A5
:100C960095265007E4F540F5418009A202E4337534
:070CA6004000F541020AAD18
:100EDC00538E7F5389F0438905E4F58AF58CC28DD6
:070EEC00D28CD2AFD2A92283
:100EF300538EBF53890F758B18758DFCC28FD28E9D
:050F0300D2AFD2AB22C9
:03001B000209DFF8
:1009DF00C0E0C0F0C083C082C0D075D000C000C0DE
:1009EF0001C002C003C004C005C006C007056DE505
:1009FF006D7002056CFFAE6CBE0323BFE820756CF3
:100A0F0000756D00AF8CEFAD8AF528EDF529252522
:100A1F00F529E5243528F528758C00758A00056BB6
:100A2F00E56BB40803756B00E56B25E02456F808F9
:100A3F00E6FDE56B25E0242EF8E6FE08E64E24FFE2
:100A4F009204AF6B120CF3E56B25E0243EF808E639
:100A5F00FDAF6B120D32E5694568600BD3E5299543
:100A6F0027E5289526401C052DE52D7002052C64E1
:100A7F00C8452C700EA201B39201F52CF52DA202E0
:100A8F00B39202D007D006D005D004D003D002D045
:0E0A9F0001D000D0D0D082D083D0F0D0E03291
:100E4F00120E89120EDC120EF37B007A007921123A
:0D0E5F000C1E1208D7120C6612001E80F542
:100F1C00E4FEC297EF1392A3EFC313FFD2970EBE5A
:020F2C0008F0CB
:010F2E0022A0
:100F0800C29300C29700D29300120F1CAF05120FB4
:040F18001CC2932242
:100D6C00E4FDC29300C29700D29300120F1CE4FF63
:100D7C00C297EDC313FD30A303430580D2970FBF79
:100D8C0008EEC29300C29700D29700C2A300D2A370
:030D9C0000AF05A0
:010D9F002231
:060C1E008B088A09890A17
:100C2400E4FD7F8E120F08E4FCAB08AA09A90A8C24
:100C3400827583001207DDFF75F00A84C454F0FE48
:100C4400EF75F00A84E5F04EFBEC25E0FFC37484F5
:100C54009FFFAD03120F080CBC03CE7D807F8E0274
:020C64000F0877
:060DA0008B098A0A890B91
:100DA600E4FCEC25E0FFC374859FFF120D6CEFC4D5
:100DB600540F75F00AA4FEEF540F2EAB09AA0AA928
:0D0DC6000B8C8275830012080A0CBC03D54B
:010DD30022FD
:040EC200D2A07F0536
:100EC600000000000000000000000000000000AE6E
:060ED600071FEE70EB2285
:0F0F5300D2A1120EC2C2A17F05120EC6C2A022E9
:0C0F6200C2A1120EC2D2A17F05020EC671
:020DD400AD0769
:100DD600E4FCC2A07F05120EC6ED30E704D2A18066
:100DE60002C2A17F05120EC6D2A0ED25E0FD7F0549
:090DF600120EC60CBC08DBC2A001
:010DFF0022D1
:100E6C00E4FC120EC2ED25E0FD30A103430501C2E6
:0C0E7C00A07F05120EC60CBC08E8AF05F4
:010E88002247
:0A0EA600AB07120F537F90120DD41A
:100EB000120EC2A2A1E433FDC2A07F05120EC6AF7E
:010EC000052C
:010EC100220E
:10000300C2A0EF24FF92A17F05120EC6120EC2C238
:08001300A0D2A17F05020EC678
:100E2900120EA6AF03120DD4120EB0120F537F91FA
:100E3900120DD4120EB0120E6CAD077F0112000311
:050E4900120F62AF056D
:010E4E002281
:100F2F00120EA67F41120DD4120EB0AF03120DD4C4
:030F3F00020EB0EF
:100BC600E4FFC2ABC2C4D2C2D2B520B0027F0720B6
:100BD600B1027F0620B2027F0520B3027F04D2C491
:100BE600C2C2D2B520B0027F0B20B1027F0A20B26A
:100BF600027F0920B3027F08D2C4D2C2C2B520B098
:100C0600027F0F20B1027F0E20B2027F0D20B302B9
:070C16007F0CD2AB75B0FFAB
:010C1D0022B4
:060CEC00010C00010D00E7
:100D3200ED600F7401A807088002C333D8FC420C8F
:100D4200800E7401A807088002C333D8FCF4520C49
:100D5200E50C650D6013E50CF4F580E5A0541F4425
:090D620080F5A053A01F850C0DC3
:010D6B002265
:100F4200C0F9A4B0999282F88090FF8C89C78EBFB5
:010F52008816
:100CF3007580FFE5A0541F44E0F5A053A01F7401C5
:100D0300A807088002C333D8FCF580E5A0541F442C
:100D1300C0F5A053A01FED900F4293F5803004035C
:0F0D230053B07FE5A0541F44E0F5A053A01F225A
:100E89007580FFE5A0541F4480F5A053A01FE4F529
:0D0E990080E5A0541F44A0F5A053A01F2227
:100480000207C8E86480F8E933E83360110460F0DB
:10049000ED33EC337009E8FCE9FDEAFEEBFF2204E2
:1004A00060DED3EB9FEA9EE99DE8C2E78CF0C2F7DD
:1004B00095F0400CE8CCF8E9CDF9EACEFAEBCFFBA9
:1004C00012079385D0F05804700320D5B3E8047068
:1004D000075002B2D50207D292D5EC0460F7E4CC03
:1004E000C0E0C398F8603B94186008400DD0E0FB72
:1004F0000207AAE4FBFAC9FC8028E830E406E4C954
:10050000FBE4CAFCE830E305E4C9CACBFCE85407C5
:100510006010F8C3E913F9EA13FAEB13FBEC13FCD0
:10052000D8F130F52FC3E49CFCEF9BFFEE9AFEED73
:1005300099FDD0E0FBEF4E4D4C701222DB03020719
:10054000CFEC2CFCEF33FFEE33FEED33FDED30E767
:10055000EB0207AAEF2BFFEE3AFEED39FDD0E0FBF0
:1005600050130BBB00030207D2ED13FDEE13FEEF99
:0805700013FFEC13FC0207AAC3
:10057800EC4D6011E8497017ED33EC3304600DE47D
:10058800FCFFFEFD22E933E8330470F80207C812C5
:10059800079358046009E4CC2481500628500902C6
:1005A80007D22840030207CFC0E0EB4A7044B98065
:1005B80006D0E0FB0207BEEF4E701CBD8008EBFFC3
:1005C800EAFEE9FD80EBE98DF0A4FEE5F0020661A4
:1005D800E9CDF9EAFEEBFFEF89F0A4FCE5F0CE895E
:1005E800F0A42EFFE435F0CD89F0A42DFEE435F01B
:1005F8008067EF4E7005BD80D780C3EF8BF0A4AC49
:10060800F0EE8BF0A42CFCE435F0F8EF8AF0A42C83
:10061800E5F038FCE433CB8DF0A42CFCE5F03BF896
:10062800EE8AF0A42CFCE5F038F8E433CF89F0A486
:100638002CFCE5F038CF3400CE89F0A42FFFE5F08C
:100648003EFEE433C98DF0A42EFEE5F039CD8AF0E4
:10065800A42FFFE5F03EFEE43DFD33D0E0FB50075C
:100668000BBB000F0207D2EC2CFCEF33FFEE33FE7E
:06067800ED33FD0207AAAC
:10067E000207D2EC5D046005E8590470030207C856
:10068E00120793580460F6EC4860F2EC7004FDFE1D
:10069E00FF22C860DB2481C85009C398600250064F
:1006AE000207CF9850CAF582E9294B4A7005AB82F2
:1006BE000207BE75F0007C1A7880C3EF9BEE9AEDB0
:1006CE0099400DC3EF9BFFEE9AFEED99FDE842F0C7
:1006DE00DC23ACF0D0E0FFD0E0FED0E0FDAB82201A
:1006EE00E7101BEB60BAEC2CFCEF33FFEE33FEEDA4
:1006FE0033FD0207AAE803F830E705C0F075F000F5
:10070E00EF2FFFEE33FEED33FD40B830E7C280AA87
:10071E0075F020800E75F010800575F0087D007E56
:10072E00007F003392D530D5031208C9EC33401048
:10073E00EF33FFEE33FEED33FDEC33FCD5F0ED225F
:0E074E00E5F0247EA2D513CC92E7CDCEFF229B
:10075C00EDD2E7CD33EC3392D524814006E4FFFE95
:10076C00FDFC22FCE4CFCECDCC24E0501174FF80F4
:10077C00EDC3CC13CCCD13CDCE13CECF13CF047091
:07078C00F030D5DE0208C9C0
:10079300E9D2E7C933E833F892D5EDD2E7CD33ECAC
:0707A30033FC5002B2D52225
:1007AA00EC30E7100FBF000C0EBE00080DBD0004B0
:1007BA000BEB6014A2D5EB13FCED92E7FD2274FF5C
:1007CA00FCFDFEFF22E480F8A2D574FF13FC7D80B5
:0307DA00E480EFC9
:100B4600020E4FE493A3F8E493A34003F68001F268
:100B560008DFF48029E493A3F85407240CC8C333B0
:100B6600C4540F4420C8834004F456800146F6DF7F
:100B7600E4800B0102040810204080900CADE47E56
:100B8600019360BCA3FF543F30E509541FFEE49374
:100B9600A360010ECF54C025E060A840B8E493A33B
:100BA600FAE493A3F8E493A3C8C582C8CAC583CA66
:100BB600F0A3C8C582C8CAC583CADFE9DEE780BE1E
:010CF2000001
:1007DD00BB010CE58229F582E5833AF583E02250D1
:1007ED0006E92582F8E622BBFE06E92582F8E2221B
:0D07FD00E58229F582E5833AF583E4932235
:10080A00F8BB010DE58229F582E5833AF583E8F024
:10081A00225006E92582C8F622BBFE05E92582C8D0
:02082A00F222B8
:10082C00EF8DF0A4A8F0CF8CF0A428CE8DF0A42EE0
:02083C00FE229A
:10083E00BC000BBE0029EF8DF084FFADF022E4CC9E
:10084E00F875F008EF2FFFEE33FEEC33FCEE9DEC67
:10085E00984005FCEE9DFE0FD5F0E9E4CEFD22EDAD
:10086E00F8F5F0EE8420D21CFEADF075F008EF2FF7
:10087E00FFED33FD4007985006D5F0F222C398FDE8
:05088E000FD5F0EA2285
:10089300C2D5EC30E709B2D5E4C39DFDE49CFCEE80
:1008A30030E715B2D5E4C39FFFE49EFE12083EC3B2
:1008B300E49DFDE49CFC800312083E30D507C3E4AD
:0608C3009FFFE49EFE22EF
:0E08C900C3E49FFFE49EFEE49DFDE49CFC2240
:00000001FF
